:060000000A128A110C280F
:10000800FE00030EF1000A08F2000A168A119C2F5E
:100018000A128A110F28F801F901FA018313A03096
:100028008400CD300A168A1167270A128A118301C3
:100038000A128A15C52D8312031347088039CC008C
:100048004C08D1004708CC004C07CD004D08D7001C
:10005800C61F2F2830283128571457080319352868
:1000680036284528570A031D3A283B2843280030DC
:10007800C7000030C6000030C5000030C400C617F5
:100088004D280030C7000030C6000030C5000030E1
:10009800C4004B088039CC004C08D1064B08CC0072
:1000A8004C07CD004D08D600CA1F5B285C285D2888
:1000B800561456080319612862287128560A031D28
:1000C800662867286F280030CB000030CA0000304F
:1000D800C9000030C800CA1779280030CB000030AA
:1000E800CA000030C9000030C800560803197D282E
:1000F8007E2883285708031D822883288C280030EF
:10010800C7000030C6000030C5000030C4007F2B97
:100118004408CC004C08F3004A080A128A15492002
:100128000A128A11740883120313DD007308DC00B5
:100138005C08CC00CD01CE01CF014F08D5004E0898
:10014800D4004D08D3004C08D2005D08CC00CD0186
:10015800CE01CF014F08DB004E08DA004D08D90068
:100168004C08D8004508CC004C08F30049080A128E
:100178008A1549200A128A11740883120313DD00B4
:100188007308DC005C08CC00CD01CE01CF014C081F
:10019800D2074D0803110318013E0319D428D307C9
:1001A8004E0803110318013E0319DB28D4074F0832
:1001B80003110318013E0319E228D5075D08CC0096
:1001C800CD01CE01CF014C08D8074D080311031803
:1001D800013E0319F028D9074E0803110318013E00
:1001E8000319F728DA074F0803110318013E03190A
:1001F800FE28DB074608CC004C08F30048080A1222
:100208008A1549200A128A11740883120313DD0023
:100218007308DC005C08CC00CD01CE01CF014C088E
:10022800D2074D0803110318013E03191C29D307EF
:100238004E0803110318013E03192329D4074F0858
:1002480003110318013E03192A29D5075D08CC00BC
:10025800CD01CE01CF014C08D8074D080311031872
:10026800013E03193829D9074E0803110318013E26
:1002780003193F29DA074F0803110318013E031930
:100288004629DB070830CC000310D20DD30DD40D5E
:10029800D50DCC0B48294508CC004C08F30048087C
:1002A8000A128A1549200A128A1174088312031344
:1002B800DD007308DC005C08CC005D08CD00CE01D1
:1002C800CF014C08D2074D0803110318013E03194A
:1002D8006E29D3074E0803110318013E0319752927
:1002E800D4074F0803110318013E03197C29D507C9
:1002F8004408CC004C08F30049080A128A15492022
:100308000A128A11740883120313DD007308DC00D3
:100318005C08CC005D08CD00CE01CF014C08D207A7
:100328004D0803110318013E03199B29D3074E08F2
:1003380003110318013E0319A229D4074F0803111A
:100348000318013E0319A929D5070830CC0003106A
:10035800D20DD30DD40DD50DCC0BAB294408CC0050
:100368004C08F30048080A128A1549200A128A1113
:10037800740883120313DD007308DC005C08CC00EA
:100388005D08CD00CE01CF014C08D2074D080311FE
:100398000318013E0319D129D3074E080311031886
:1003A800013E0319D829D4074F0803110318013E49
:1003B8000319DF29D5074508CC004C08F3004A0883
:1003C8000A128A1549200A128A1174088312031323
:1003D800DD007308DC005C08CC005D08CD00CE01B0
:1003E800CF014C08D8074D0803110318013E031923
:1003F800FE29D9074E0803110318013E0319052ADF
:10040800DA074F0803110318013E03190C2ADB070A
:100418004608CC004C08F30049080A128A154920FE
:100428000A128A11740883120313DD007308DC00B2
:100438005C08CC005D08CD00CE01CF014C08D80780
:100448004D0803110318013E03192B2AD9074E083A
:1004580003110318013E0319322ADA074F08031162
:100468000318013E0319392ADB074608CC004C085B
:10047800F3004A080A128A1549200A128A117408D8
:1004880083120313DD007308DC005C08CC005D08F0
:10049800CD00CE01CF0108300310CC0DCD0DCE0D0F
:1004A800CF0DFF3E031D502A4C08D8074D080311F5
:1004B8000318013E0319612AD9074E0803110318CE
:1004C800013E0319682ADA074F0803110318013E91
:1004D80003196F2ADB075208CC005308CD005408D3
:1004E800CE005508CF0018300310CF0CCE0CCD0C21
:1004F800CC0CFF3E031D782A4C08D8074D08031181
:100508000318013E0319892AD9074E080311031855
:10051800013E0319902ADA074F0803110318013E18
:100528000319972ADB070830CC000310D20DD30D2E
:10053800D40DD50DCC0B992A57085607CC00CD0100
:10054800CD0D4C08823EDC004D080318013EFF3EED
:10055800DD00CB2A0130CC000310D80DD90DDA0DFF
:10056800DB0DCC0BB02AD51FBA2ABB2ABC2A5814DB
:100578000130CC000310D20DD30DD40DD50DCC0B0A
:10058800BE2AFF30DC070318DD0AFF30DD07DA1F5B
:10059800CE2ACF2AAE2AD601D51FD32AD42AF02AAA
:1005A800FF305205CC00FF305305CD00FF30540515
:1005B800CE007F305505CF004F084E044D044C0443
:1005C8000319E72AE82AEB2AD601D60AF02A581C8A
:1005D800EE2AEF2AF02AE82A56080319F42AF52AFF
:1005E800262B0130D807003003180130D907003016
:1005F80003180130DA07003003180130DB075B1CF1
:10060800062B072B262B5808CC005908CD005A0872
:10061800CE005B08CF000130D0004F0DCF0CCE0CC0
:10062800CD0CCC0CD00B112B4F08DB004E08DA0098
:100638004D08D9004C08D8000130DC070318DD0A42
:100648000030DD075D08803AFF0080307F02031D1F
:100658002F2BFF305C02031C322B332B3E2B7F30B9
:1006680083120313DB008030DA000030D900003039
:10067800D800732B831203135D08803AFF00803083
:100688007F02031D492B01305C0203184C2B4D2BB4
:10069800592B003083120313DB000030DA000030DE
:1006A800D9000030D800D101732B831203135C08E2
:1006B800CC004C08D700FF30D805FF30D9057F3073
:1006C800DA050030DB05571C6A2B6B2B6C2BDA170D
:1006D8005708CC0003104C0CCD004D08DB00510826
:1006E800CC004C08DB045B08C7005A08C600590850
:1006F800C5005808C4000800831203136108803934
:10070800E600660883160313CD00831203136108FD
:10071800E6006607E700670883160313CF00831215
:100728000313E01F982B992B9C2B831603134F144C
:10073800831603134F080319A22BA32BB62B4F0ABA
:10074800031DA72BA82BB22B003083120313E10043
:100758000030E0000030DF000030DE008312E017D8
:10076800E101C02B003083120313E1000030E000E8
:100778000030DF000030DE0065088039E6006608DA
:1007880083160313CE004E084D060319CC2BCD2B30
:10079800CE2B4D17831203136508E6006607E700A2
:1007A800670883160313CE0083120313E41FDD2B9F
:1007B800DE2BE12B831603134E14831603134E0806
:1007C8000319E72BE82BFB2B4E0A031DEC2BED2B13
:1007D800F72B003083120313E5000030E4000030EB
:1007E800E3000030E2008312E417E501052C003035
:1007F80083120313E5000030E4000030E30000300A
:10080800E200831603134F084E0203180C2C0D2C1C
:10081800832C4D1F102C112C192C8030831203139C
:10082800E600660883160313CD064F0883120313E8
:10083800E600660883160313D0004E0883120313DC
:10084800E600660883160313CF00500883120313CB
:10085800E600660883160313CE00831203135E08AE
:10086800E600660883160313D00083120313620898
:10087800E6006608DE00831603135008831203138C
:10088800E6006608E2005F08E600660883160313C0
:10089800D000831203136308E6006608DF0083169E
:1008A8000313500883120313E6006608E300600888
:1008B800E600660883160313D00083120313640846
:1008C800E6006608E000831603135008831203133A
:1008D800E6006608E4006108E6006608831603136C
:1008E800D000831203136508E6006608E10083164A
:1008F8000313500883120313E6006608E500831605
:100908000313D0014E0883120313E600E7016708BA
:10091800E900831603134F08831203136602E800E5
:10092800031CE9036908803AFF0080307F02031D39
:100938009F2C1A306802031CA22CA32CF52C8312BE
:100948000313610860045F045E04031DAC2CAE2C25
:100958000130AF2C0030E600660883160313D00080
:10096800003083120313E1000030E0000030DF00A4
:100978000030DE00831603134E0883120313E600CB
:10098800660883160313CF00FD2C501CCC2CCD2CED
:10099800DA2C500883120313E6000310660C0138A2
:1009A800E700670883160313D000DC2C0310D00C73
:1009B800831203135E1CE12CE22CE52C831603132F
:1009C800D01701308312E600610DE10CE00CDF0C5A
:1009D800DE0CE60BE82C0130E600660883160313EC
:1009E800CF07831603134E084F02031CFC2CFD2C63
:1009F800C92C4D1B002D012D5D2D4F08031D052D04
:100A0800062D112D003083120313E1000030E000A1
:100A18000030DF000030DE00BF2E831203136208AF
:100A2800DE07630803110318013E03191C2DDF07B5
:100A3800640803110318013E0319232DE007650814
:100A480003110318013E03192A2DE107611C2D2DFE
:100A58002E2D232E83160313501C332D342D412D98
:100A6800500883120313E6000310660C0138E700F0
:100A7800670883160313D000432D0310D00C83128C
:100A880003135E1C482D492D4C2D83160313D017D4
:100A980001308312E600610DE10CE00CDF0CDE0C86
:100AA800E60B4F2D0130E600660883160313CF07C7
:100AB800232E831203136108803AFF006508803AE9
:100AC8007F02031D712D64086002031D712D6308E8
:100AD8005F02031D712D62085E020318742D752DC7
:100AE800D12DFF30E600FF30E700FF30E800FF308F
:100AF800E9006208EA006308EB006408EC00650896
:100B0800ED005E08EA025F08031C5F0F8C2D8D2D37
:100B1800EB026008031C600F922D932DEC02610814
:100B2800031C610F982D992DED026A08E6076B08E2
:100B380003186B0FA02DA12DE7076C0803186C0F85
:100B4800A62DA72DE8076D0803186D0AE90769089F
:100B5800E1006808E0006708DF006608DE00803012
:100B6800E600660883160313CD06D009D00A50089C
:100B7800031DBF2DC02DDF2D013083120313DE07A7
:100B8800003003180130DF07003003180130E00798
:100B9800003003180130E107DF2D6208DE02630828
:100BA800031C630FDF026408031C640FE00265087E
:100BB800031C650FE1028312610860045F045E0490
:100BC800031DE72DE82D1E2E831603135008031D61
:100BD800EE2DEF2D1E2E003083120313E10000309E
:100BE800E0000030DF000030DE00BF2E0130E600FC
:100BF8000310DE0DDF0DE00DE10DE60BFC2D831675
:100C08000313D01F082E092E0C2E831203135E1413
:100C180083160313501C112E122E152E0314D00DFB
:100C2800172E0310D00D4F0803191B2E1C2E1E2E35
:100C38000130CF028312E01F222E232EFA2D8316B5
:100C48000313CE01D01F292E2A2E3C2E50087F399F
:100C580003192F2E302E352E83160313CE01CE0AFC
:100C68003C2E831203135E1C3A2E3B2E3C2E302E54
:100C7800831603134E080319422E432E7F2E01308C
:100C880083120313DE07003003180130DF0700303A
:100C980003180130E007003003180130E107611C38
:100CA800562E572E7F2E5E08E6005F08E700600884
:100CB800E8006108E9000130EA00690DE90CE80C78
:100CC800E70CE60CEA0B612E6908E1006808E00011
:100CD8006708DF006608DE00831603134F0A03194E
:100CE800762E772E7F2E013083120313E6006608D6
:100CF80083160313CF07831603134F0A0319852E90
:100D0800862E8B2E4F08031D8A2E8B2E9D2E00308B
:100D180083120313E1000030E0000030DF000030F0
:100D2800DE00831603134F08031D9B2E9C2E9D2E59
:100D3800CD014F1CA02EA12EA52E83120313E01760
:100D4800AB2E7F3083120313E6006608E005831696
:100D580003134F0883120313E6000310660CE70021
:100D68006708E10083160313CD1FBB2EBC2EBF2ED0
:100D780083120313E117080083120313B6002A3005
:100D8800AE002E08B100932F253037060319CD2E5B
:100D9800CE2EDA2E3708AE00360884002E088313CC
:100DA80080000130AE002E08B607932FB201013043
:100DB800A907FF30290784000A128A150A200A1297
:100DC8008A11B700AE00AF012F08003A0319ED2EC3
:100DD800932F2E08003A0319A52F643A0319F82E09
:100DE8000D3A0319F82E932F310884008313000855
:100DF800B400840A0008B5000230AE002E08B1071E
:100E0800B51F072F082F112F0330AE002E08B2048C
:100E1800B409B509B40A0319B50AB701B70A3708FE
:100E2800AE002E07013E84000A128A150A200A1213
:100E38008A11AF000A128A150A200A128A11B00014
:100E480030083502031D2A2F2F08340203182D2FCE
:100E58002E2F2F2F392F0130AE002E08B70705305F
:100E68003706031D382F392F132F3208033903197A
:100E78003E2F3F2F4A2F2D30AE00360884002E0813
:100E8800831380000130AE002E08B6073708AE0085
:100E98002E08B3008A2F0A30A3000030A4003308BC
:100EA800AE002E07013E84000A128A150A200A1293
:100EB8008A11F3000A128A150A200A128A11F4000C
:100EC8003508F6003408F5000A128A153F210A127F
:100ED8008A11740883120313A6007308A5000A1266
:100EE8008A1503210A128A11831203132308303E3C
:100EF800AF002F08B7003708AE00360884002E0868
:100F0800831380000130AE002E08B607FF30AE0014
:100F18002E08B307330A031D922F932F4F2F01304A
:100F2800A907FF30290784000A128A150A200A1225
:100F38008A11AE002E08B7003708031DA42FA52F6D
:100F4800C82E3608840083138001080000300A1672
:100F58008A1188270A128A113430F700F130F60016
:100F6800F60BB42FF70BB42FB92F30300A168A11AD
:100F780088270A128A110D30F700FB30F600F60BAD
:100F8800C32FF70BC32FC82F30300A168A118827B2
:100F98000A128A111A30F700F830F600F60BD22F31
:100FA800F70BD22F000030300A168A1188270A1250
:100FB8008A114230F600F60BDF2F000038300A168F
:100FC8008A1188270A128A110C300A168A11882772
:100FD8000A128A1101300A168A1188270A128A1100
:0E0FE80006300A168A1188270A128A1108009C
:10100000FF1B0A2883137F1883170008840A03191B
:10101000FF0A080008308A000408840A82070034A6
:10102000013400340A34003464340034E8340334C6
:1010300010342734533431343A34203420342034BB
:10104000203420342034533432343A3400342534BC
:0E10500064342E342534643420345634003495
:10106600F600831603138712761D3A283B283F287D
:101076007508940087154328730875049400871132
:101086007608740483120313940008008312031372
:10109600A400A001A1017308F500F6017508A200DD
:1010A6007608A300241C582859285F282208A00780
:1010B6000318A10A2308A10701300310A20DA30DEE
:1010C600FF3E031D60280310A40C2408031D6C2892
:1010D6006D2855282108F4002008F3000800831223
:1010E6000313A001A101731C79287A2882287508A8
:1010F60083120313A0070318A10A7608A10701307B
:101106000310F50DF60DFF3E031D83280130031075
:10111600F40CF30CFF3E031D8A2873087404031DA8
:10112600952896287628831203132108F4002008B0
:10113600F300080083120313A001B82820087507DE
:10114600840076080318760AFF000A128A15002022
:101156000A128A150A168A1178270A128A15013088
:10116600F700770883120313A00720087507840089
:1011760076080318760AFF000A128A1500200A125A
:101186008A15003A031DC828C928A1280800F500B9
:10119600EB28831603130F088F3940388F00012977
:1011A600831603130F088F3950388F0001298316D1
:1011B60003130F088F3960388F00012970308316AA
:1011C60003138F0401297030831603138F0401293A
:1011D6007508F300F4017408003A0319F328E628A9
:1011E6007308013A0319CC28033A0319D328063A9F
:1011F6000319DA280C3A0319E128E6280F14080027
:10120600831203132308240403190A290B293A29F4
:10121600A801A80A192901300310A30DA40DFF3E49
:10122600031D0F290130A7002708A807A41F1C29A2
:101236001D290E2924082602031D23292308250219
:10124600031C262927292D292308A5022408031C67
:10125600A603A60201300310A40CA30CFF3E031D37
:101266002E290130A802031D39293A291D292608ED
:10127600A4002508A300080083120313A101A201FC
:10128600730874040319482949298029A001A00A72
:10129600572901300310F30DF40DFF3E031D4D29B0
:1012A6000130F7007708A007F41F5A295B294C295B
:1012B60001300310A10DA20DFF3E031D5C29740829
:1012C6007602031D682973087502031C6B296C29B5
:1012D60073297308F5027408031CF603F602211439
:1012E60001300310F40CF30CFF3E031D742901308A
:1012F600A002031D7F2980295B292208F40021080A
:10130600F3000800F500831603138112750803190C
:101316008D298E2990298111C1297508031D9429CB
:101326009529C1298115C129F8308105E629F830AA
:101336008105E6290108F83901388100E629010806
:10134600F83902388100E6290108F83903388100A6
:10135600E6290108F83904388100E6290108F83938
:1013660005388100E6290108F83906388100E629A2
:1013760007308104E629F8308105E6297508F3006F
:10138600F4017408003A0319C929BE297308003A02
:1013960003199729023A03199A29063A03199D292E
:1013A6000C3A0319A229183A0319A729303A031946
:1013B600AC29603A0319B129C03A0319B6297F3A14
:1013C6000319BB29BE298B160B11080003108316BF
:1013D6000313530D540DD500550883120313EF0064
:1013E6006F08031DF729F829032A00308316031313
:1013F600D4000030D3000030D2000030D1007A2A69
:10140600831603135108D5005208D6005308D70097
:101416005408D8001F300310D80CD70CD60CD50CA6
:10142600FF3E031D0E2A5508D900590883120313DF
:10143600EE0083160313D317FF30D105FF30D20514
:10144600FF30D3050030D405963083120313EF0224
:10145600EF1F2E2A2F2A4D2A6F08803A973E03182F
:10146600352A362A372AF829013003108316031342
:10147600D40CD30CD20CD10CFF3E031D382A0130FC
:10148600D500550883120313EF07031D4B2A4C2A78
:10149600372A682A20306F02031C522A532A632AED
:1014A600F829013083160313D5000310D10DD20D90
:1014B600D30DD40DD50B582A013083120313EF0236
:1014C6006F08031D672A682A542A6E0803196C2AB6
:1014D6006D2A7A2A83160313D109D209D309D409AE
:1014E600D10A0319D20A0319D30A0319D40A080028
:1014F600831603135F08F3006008F400F501F60194
:1015060000300A128A152C230A128A1576088312CD
:101516000313E5007508E4007408E3007308E200AD
:10152600831603135F086102F3006008031C600A58
:101536006202F400F501F60100300A128A152C2326
:101546000A128A15760883120313B1007508B000D3
:101556007408AF007308AE00831603135C085D02BF
:10156600F3005E08031C5E03F400F501F60100308B
:101576000A128A152C230A128A1576088312031377
:10158600AD007508AC007408AB007308AA000A1217
:101596008A15E8230A128A15831203132D08CB0035
:1015A6002C08CA002B08C9002A08C8008316031392
:1015B6005C085A02F3005B08031C5B03F400F501A8
:1015C600F60100300A128A152C230A128A157608AB
:1015D60083120313C7007508C6007408C500730894
:1015E600C4000A128A111F200A128A1583120313D5
:1015F6004708E1004608E0004508DF004408DE0031
:101606000A128A1180230A128A15831203136108AB
:1016160083160313D400831203136008831603137F
:10162600D300831203135F0883160313D2008312B9
:1016360003135E0883160313D1000A128A15E921E3
:101646000A128A15831603135208DB005108DA00C2
:10165600080083120313A40024080319332B342B28
:10166600482BF61F372B382B482B7309A600740915
:10167600A7007509A8007609A900A60A0319A70AF2
:101686000319A80A0319A90A502B7608A900750898
:10169600A8007408A7007308A600760875047404E9
:1016A6007304031D572B582B612B0030F6000030B6
:1016B600F5000030F4000030F300E72B9630A00070
:1016C6002008A500732B0130A0002008A5070130D3
:1016D6000310A90CA80CA70CA60CFF3E031D6B2B30
:1016E600FE302905031D782B792B662B952B0130AF
:1016F600A0002008A5070130A60700300318013016
:10170600A707003003180130A8070030031801307E
:10171600A90701300310A90CA80CA70CA60CFF3EC4
:10172600031D8D2BFF302905031D9A2B9B2B7A2B2E
:10173600A72B0130A5020130A0000310A60DA70DAE
:10174600A80DA90DA00BA02BA81BAA2BAB2BB12B68
:10175600023025020318B02BB12B9C2B2518B42B75
:10176600B52BBD2BFF30A605FF30A7057F30A8059A
:10177600FF30A9050310A50C2508A000A101A201B0
:10178600A30118300310A00DA10DA20DA30DFF3E5D
:10179600031DC52B2008A6042108A7042208A804B7
:1017A6002308A90424080319D92BDA2BDF2BF61FEB
:1017B600DD2BDE2BDF2BA9172908F6002808F500FC
:1017C6002708F4002608F3000800831203133108E3
:1017D6008039B2003208BB003108B2003207B300CC
:1017E6003308C200B01FF82BF92BFA2B421442081B
:1017F6000319FE2BFF2B0F2C420A031D032C042C6E
:101806000C2C0030B1000030B0000030AF000030CA
:10181600AE00B017B101172C0030B1000030B00097
:101826000030AF000030AE002D088039B20032081B
:10183600BB062D08B2003207B3003308C300AC1F45
:10184600252C262C272C4314430803192B2C2C2C2F
:101856003C2C430A031D302C312C392C0030AD00B2
:101866000030AC000030AB000030AA00AC17AD0170
:10187600442C0030AD000030AC000030AB0000302E
:10188600AA002D082C042B042A04031D4B2C4C2CD7
:10189600652C0030B1000030B0000030AF000030E1
:1018A600AE008030B0047F30B1043B08B20032088D
:1018B600B1043108AD003008AC002F08AB002E088B
:1018C600AA00C42D4208031D692C6A2C732C003013
:1018D600AD000030AC000030AB000030AA00C42DD3
:1018E6004208B200B3013308B50043083202B4001F
:1018F600031CB50334087F3EBC0035080318013EBF
:10190600003EBD003108BA003008B9002F08B80003
:101916002E08B7000030B1000030B0000030AF0034
:101926000030AE000030C1000030C0000030BF0003
:101936000030BE00C301E92C43080319A32CA42CD4
:10194600C42C0130B2000310B70DB80DB90DBA0D95
:10195600B20BA62C0130B2000310AE0DAF0DB00DC8
:10196600B10DB20BAF2CC11FB92CBA2CBB2C2E1447
:101976000130B2000310BE0DBF0DC00DC10DB20B7C
:10198600BD2C2D083A02031DD22C2C083902031D4A
:10199600D22C2B083802031DD22C2A083702031C2E
:1019A600D52CD62CE52C41172A08B7022B08031C88
:1019B6002B0FB8022C08031C2C0FB9022D08031C90
:1019C6002D0FBA020130B2003208C3071A304302A3
:1019D600031CEE2CEF2C9F2C3A08390438043704EC
:1019E6000319F62CF72C162D3E14162D0130B200D5
:1019F6000310AE0DAF0DB00DB10DB20BFB2CC11F18
:101A0600052D062D072D2E140130B2000310BE0D34
:101A1600BF0DC00DC10DB20B092DFF30BC07031859
:101A2600BD0AFF30BD07B01F192D1A2DF92CC301B1
:101A3600C11F1E2D1F2D3B2DFF303E05B200FF306E
:101A46003F05B300FF304005B4007F304105B500C7
:101A560035083404330432040319322D332D362D60
:101A6600C301C30A3B2D2E1C392D3A2D3B2D332D98
:101A7600430803193F2D402D712D0130AE0700306C
:101A860003180130AF07003003180130B0070030EB
:101A960003180130B107311C512D522D712D2E081E
:101AA600B2002F08B3003008B4003108B500013089
:101AB600B600350DB50CB40CB30CB20CB60B5C2DE0
:101AC6003508B1003408B0003308AF003208AE0064
:101AD6000130BC070318BD0A0030BD073D08803A37
:101AE600FF0080307F02031D7A2DFF303C02031C6D
:101AF6007D2D7E2D8C2DFF3083120313BC0000300C
:101B0600BD000030B1000030B0000030AF00003042
:101B1600AE00831203133D08803AFF0080307F0237
:101B2600031D972D01303C0203189A2D9B2DA82DDD
:101B360083120313BC01BD010030B1000030B000B8
:101B46000030AF000030AE00BB01831203133C0827
:101B5600B2003208C200421CB12DB22DB42DB0170E
:101B6600B82D7F30B2003208B0054208B20003102B
:101B7600320CB3003308B1003B08B2003208B1049E
:101B86005C2C080001300A128A15CA200A128A152E
:101B96000A168A11B9270A128A15FF300A128A15FF
:101BA60085210A128A150A168A115A270A128A15D7
:101BB6000A128A11AA270A128A1578080319E42D2F
:101BC600E52DAF2F8312031309105230831603132A
:101BD600E300E30BEC2D000048300A168A11542767
:101BE6000A128A157A08031DF92DFA2D112E0A16E6
:101BF6008A116F270A128A1583160313E3006308F6
:101C0600B800FA01FA0A523083160313E300E30B15
:101C16000A2E0000831203130910282E0A168A11B1
:101C26006F270A128A1583160313E300E40163087B
:101C3600B0006408B100523083160313E300E30BCF
:101C4600222E00008312031309102130831603137A
:101C5600E4007530E300E30B2E2EE40B2E2E332E1C
:101C66008312031309104C300A168A1154270A12DC
:101C76008A150A168A116F270A128A158316031304
:101C8600E300E4016308B6006408B7005230831627
:101C96000313E300E30B4D2E000083120313091414
:101CA600213083160313E4007530E300E30B592E4D
:101CB600E40B592E5E2E83120313091041300A16C7
:101CC6008A1154270A128A150A168A116F270A12D0
:101CD6008A1583160313E300E4016308B20064085F
:101CE600B300523083160313E300E30B782E000093
:101CF600831203130914213083160313E40075308D
:101D0600E300E30B842EE40B842E892E8312031347
:101D1600091042300A168A1154270A128A150A1621
:101D26008A116F270A128A1583160313E300E4014A
:101D36006308B4006408B500523083160313E30049
:101D4600E30BA32E0000831203130914213083161C
:101D56000313E4007530E300E30BAF2EE40BAF2E64
:101D6600B42E831603133708E4003608E300031085
:101D7600E30DE40D0310E30DE40D32086307AE0036
:101D860033080318330A6407AF003508E400340843
:101D9600E3000310E30DE40D0310E30DE40D30083A
:101DA6006307AC0031080318310A6407AD002F0839
:101DB600DB002E08DA00DC01FF30DD000330DE0038
:101DC6000030DF00E000F430E1000130E2000A12EA
:101DD6008A157B220A128A15831603135B08AB0049
:101DE6005A08AA006430F3000030F4002B08F6000D
:101DF6002A08F5000A128A153F210A128A15740864
:101E060083160313A7007308A6002708F400260804
:101E1600F3009C30F500FF30F6000A128A15722096
:101E26000A128A15831603132A087307A4002B08BF
:101E360003182B0A7407A5001830E3006308831201
:101E46000313A90083160313270883120313AB0099
:101E560083160313260883120313AA00831603139B
:101E6600250883120313AD00831603132408831277
:101E76000313AC00C3300A128A11C0260A128A154F
:101E8600831603132D08DB002C08DA00DC01FF3073
:101E9600DD000330DE000030DF00E000F430E1005A
:101EA6000130E2000A128A157B220A128A1583166D
:101EB60003135B08A9005A08A8006430F300003039
:101EC600F4002908F6002808F5000A128A153F21B1
:101ED6000A128A15740883160313A3007308A20056
:101EE6002308F4002208F3009C30F500FF30F600CA
:101EF6000A128A1572200A128A15831603132808F5
:101F06007307A00029080318290A7407A1001830CE
:101F1600E300630883120313A9008316031323083F
:101F260083120313AB0083160313220883120313D1
:101F3600AA0083160313210883120313AD00831628
:101F46000313200883120313AC00B9300A128A1156
:101F5600C0260A128A15F801F601F60A01300A1699
:101F66008A11DA270A128A150B30F5008030F6003E
:101F76000A128A159D200A128A1521308316031328
:101F8600E4007530E300E30BC62FE40BC62FCB2F1E
:101F9600F601F60A02300A168A11DA270A128A159B
:101FA600C330F5000030F6000A128A159D200A1289
:101FB6008A150A3083160313E3006308F60002301D
:101FC6000A168A11DA270A128A15B930F500003086
:101FD600F6000A128A159D200A128A1521308316E8
:101FE6000313E4007530E300E30BF72FE40BF72F40
:0A1FF600FC2FE02D0A128A110C28BE
:102E9C009E308312031381000B110800F30073089A
:102EAC0083120313930008009E30831203138100D6
:102EBC000B11080083160313141C652F662F602F4B
:102ECC00080064008001840A040603190034040617
:102EDC00682F0A168A1160270A168A1183120313A7
:102EEC0013080800F40083120313071774088800F2
:102EFC0087171A30F300F30B812F00008312031392
:102F0C0087130800F5008312031307137508880054
:102F1C0087170B30F4006230F300F30B932FF40B94
:102F2C00932F000083120313871308000B1D9F2F90
:102F3C00A02FB22F0130F0007008F9070A30790683
:102F4C00031DA92FAA2FAD2FF801F80AF9010A16B3
:102F5C008A114E270A168A1172088A00710E830094
:102F6C00FE0E7E0E09008316031788018901831655
:102F7C00031388010910831203138801013089009F
:102F8C008316031307138713831203130713871373
:102F9C00F301F401F50120300A128A1533200A16C8
:102FAC008A118B170B17080083120313A000200340
:102FBC00031DE12FE22FEE2F76087F3EF7007708F6
:102FCC00A10021080A168A1188270A168A11FF2FD8
:102FDC0002302006031DF32FF42FFF2F7608BF3E7F
:102FEC00F7007708A10021080A168A1188270A160B
:042FFC008A1108002E
:08400000FF3FFF3FFF3FFF3FC0
:04400E00D420FF3F7C
:00000001FF
